:020000040000FA
:020000000428D2
:08000800831320308400800105
:10001000840A841F0728FF30A100FF30A200FF30B0
:10002000A300FF30A4000F30A5008B01A3118A119B
:100030000A125020A6118A110A1287192028A61523
:100040008A110A124A2005308A110A122D208A11BB
:100050000A121A288A110A122A28A7002708AB00B8
:10006000AB088A110A12031D38288A110A1249287E
:100070000330A8008230A900AA018A110A12AA0B33
:100080003F28A90B3F28A80B3F28AB038A110A126F
:10009000302808008A110A124D2826088700080017
:1000A0008A110A12532823088A110A125B2087003A
:1000B0008A110A125E2883160313080083120313A1
:0200C000080036
:02400E00323F3F
:00000001FF
