:020000040000FA
:020000000428D2
:08000800831320308400800105
:10001000840A841F0728FF30A200FF30A300FF30AE
:10002000A400FF30A5000F30A6008B0107308A1115
:100030000A1282218A110A121821B0018A110A12A9
:10004000BD2007308A110A12822127148A110A1250
:10005000E721B401B50127148A110A12E721221001
:100060008A110A12ED2134088A110A125F21271021
:100070008A110A12E72122148A110A12ED210E3088
:100080008A110A128221B6018A110A12D020370879
:10009000B20007308A110A12822122108A110A1234
:1000A000ED21AA013208AB008A110A12ED20B30A31
:1000B0003308403C8A110A1203187F2803308A1142
:1000C0000A1206212E088A110A120D212F088A1100
:1000D0000A120D21AF01AE01B301143035028A11AD
:1000E0000A1203187728B50A8A110A127F28E63007
:1000F00034028A110A1203187F280430B407340826
:10010000FF3C8A110A125F218A110A122B28271438
:100110008A110A12E72122108A110A12ED210530F4
:100120008A110A12452127108A110A12E721221486
:100130008A110A12ED2105308A110A125F218A11F3
:100140000A12051CA728AA308A110A120D212710AD
:100150008A110A12E72122108A110A12ED210530B4
:100160008A110A12452122148A110A12ED218A11DC
:100170000A1287288A110A12BA288A110A12C0287C
:100180000E308A110A12822122148A110A12ED21DC
:100190008A110A12CB288130B0000230B100080069
:1001A000B70036080739B9000330BA008A110A12BD
:1001B000FE213B08B800380830049F0031088A113E
:1001C0000A125F211F158A110A121F1DEA288A11BF
:1001D0000A12E3281E08B70008008A110A12F02844
:1001E000F728AE0F0800AD0F0800AC0A08002B0876
:1001F000AF070318F1202A08AE070318F3202908D7
:10020000AD070318F5202808AC070800B600031056
:10021000AE0CAF0CB60B07290800B6008A110A1203
:100220000C1A15298A110A120E293608990008009D
:10023000DF308C05EF308C0520308A110A129D21A9
:100240008A110A1228218030980010309804080082
:100250000A308A110A128A21A0148A110A12A01CDB
:100260003C298A110A1292212A0804388A110A129A
:100270009D218A110A1244298A110A1292212A0800
:10028000FB398A110A129D210800B6003608B90010
:10029000B9088A110A12031D50298A110A125E290F
:1002A0000730B7006430B8008A110A12B80B56291B
:1002B000B70B5629B9038A110A1248290800B90058
:1002C000B9088A110A12031981293908013C8A11D7
:1002D0000A12031D74290A30BA0000000000BA0B8C
:1002E0006F298A110A12812901303902BB000A30B4
:1002F000BA00BA0B79290F30BA00BA0B7D29BB0BB3
:100300007B290800B600B7019F30B80036088A1173
:100310000A12A529A800B7019930B80028088A1147
:100320000A12A529AC019830AD008A110A12C62123
:100330002E08AB002B08AA000800A800B7019830CF
:10034000B80028088A110A12A529B9008A110A12D0
:10035000831FAE2920158A110A12AF2920118A1194
:100360000A12371CB72983178A110A12B829831376
:1003700038088400390880008A110A12201DC42917
:1003800083178A110A12C52983130800AE008A1147
:100390000A12831FCF2920158A110A12D029201191
:1003A0008A110A122C1CD82983178A110A12D929FA
:1003B00083132D0884000008AE008A110A12201D44
:1003C000E52983178A110A12E629831308008A1186
:1003D0000A12EA292708850008008A110A12F02962
:1003E00022088A110A12F82185008A110A12FB29B3
:1003F0008316031308008312031308003A08003C15
:100400008A110A12031C072A8A110A120F2A0310E2
:10041000B90D01303A02BA008A110A12FE293908D0
:04042000BB00080015
:02400E00323F3F
:00000001FF
