:020000040000FA
:020000000428D2
:08000800831320308400800105
:10001000840A841F0728FF30A100FF30A200FF30B0
:10002000A300FF30A4000F30A5008B010730A7000C
:100030000830A7000830A8000130A9000530AA0048
:100040000530AA008A110A1244208A110A12482097
:10005000AA308A110A12762055308A110A127620A7
:10006000AA308A110A1276208A110A124F202C080F
:10007000AB002B08013E8A110A1276208A110A125F
:1000800034288A110A124128A3178A110A129F28BC
:1000900026172608870023138A110A12A228AC000B
:1000A0000830AD008A110A12871F5428871B562872
:1000B0002908AE002A08AF00AF0B5C28AE0B5A2807
:1000C000871B54282908AE00000066282808AF00C6
:1000D000AF0B6828AE0B66280708B000B01B0314EE
:1000E000B01F0310AC0CAD0B62280800AC008A11E5
:1000F0000A128B1B7E288A110A1282288B138A11FE
:100100000A1277282C08AD000B30AE008A110A12B3
:1001100092280130AF002708B000B00B8D28AF0B3C
:100120008B280800031003182617031C2613260823
:10013000870089200314AD0CAE0B932808008A11A8
:100140000A12A5288A110A12A52823088A110A1260
:10015000AD2087008A110A12B02883160313080005
:06016000831203130800E6
:02400E00323F3F
:00000001FF
