:020000040000FA
:020000000428D2
:08000800831320308400800105
:10001000840A841F0728FF30A200FF30A300FF30AE
:10002000A400FF30A5000F30A6008B018A110A1230
:1000300056208A110A122D202808A7008A110A12B8
:10004000201D27282708013E8A110A124B208A11F9
:100050000A1219288A110A122A28A8008A110A12DB
:100060008C1E38281A08A800A0158A110A123928EF
:10007000A01118080239003C8A110A1203184428FA
:10008000EF3098051030980420118A110A12A01D33
:100090004A2820150800A8008A110A120C1A5328B1
:1000A0008A110A124C28280899000800DF308C05B4
:1000B000EF308C0520308A110A1296208A110A121C
:1000C0006620803098001030980408000A308A11A9
:1000D0000A128320A0148A110A12A01C7A288A11FD
:1000E0000A128B20290804388A110A1296208A11D4
:1000F0000A1282288A110A128B202908FB398A11D8
:100100000A1296200800A700A8019930A900270824
:100110008A110A129E28AB019830AC008A110A128B
:10012000BF202D08AA002A08A9000800A700A801DE
:100130009830A90027088A110A129E28AA008A115D
:100140000A12831FA72820158A110A12A828201135
:100150008A110A12281CB02883178A110A12B128A2
:100160008313290884002A0880008A110A12201D9E
:10017000BD2883178A110A12BE2883130800AD0018
:100180008A110A12831FC82820158A110A12C92849
:1001900020118A110A122B1CD12883178A110A12E6
:1001A000D22883132C0884000008AD008A110A129B
:1001B000201DDE2883178A110A12DF288313080006
:02400E00323F3F
:00000001FF
