:020000040000FA
:1000000000000000042800000828210885000800DE
:10001000A2018316FF2390008312073083129900F8
:1000200083169F018B018312A6012828803083123A
:10003000A6040F3083169F0510309F0403308312EF
:10004000A70008000130A600013083169F00162883
:1000500022203328A1162108850083168512080066
:100060008316051608002A203020831605108112F9
:100070008111F83001058312AC0005302C04831681
:1000800081003D308312AD006828B101B2015D28C6
:10009000B30154280B1D4A280108A0002D08A00711
:1000A000200881000B11B30A0A30330203195A28C1
:1000B000031C4A28B10A0319B20A32083002031D90
:1000C000632831082F020319080003184828080084
:1000D0008312AE186D28AE146E28AE102114AE1C1B
:1000E0002110052005308312AF00B001452068289B
:02400E0084012B
:00000001FF
