:020000040000FA
:100000000A128A11042800004F29820754346834E8
:1000100069347334203469347334203461342034C7
:100020006C346F346E34673420346C3469346E341D
:1000300065342C34203474346F3420347434653493
:100040007334743420347334633472346F346C34E6
:100050006C3469346E346734003454346834693431
:1000600073342034693473342034613420346C3474
:100070006F346E34673420346C3469346E346534D4
:100080002C34203474346F34203474346534733435
:10009000743420347334633472346F346C346C349D
:1000A00069346E346734003454346834203469342D
:1000B00073342034613420346C346F346E346734DC
:1000C00020346C3469346E3465342C342034743408
:1000D0006F3420347434653473347434203473349E
:1000E000633472346F346C346C3469346E34673416
:1000F00000345434683469347334203469347334CC
:100100002034613420346C346F346E3467342034DE
:100110006C3469346E3465342C34203474346F3468
:100120002034743465347334743420347334633459
:1001300072346F346C346C3469346E346734003428
:1001400041346E3469346D346134743469346F34DD
:100150006E34733400343634363400343734373444
:10016000003400348207573465346C3463346F34A0
:100170006D346534203474346F3420344A3441345F
:100180004C3476343234003456346F346C34743436
:1001900061346734653420343D34203420342034D5
:1001A000203420342034203400345434683469340A
:1001B00073342034693473342034613420346C3423
:1001C0006F346E34673420346C3469346E34653483
:1001D0002C34203474346F342034743465347334E4
:1001E000743420347334633472346F346C346C344C
:1001F00069346E3467340034533468346F34723485
:10020000743400340034820704340E34153404345A
:10021000043404340434043404340434043404341E
:10022000043415340E3404340034820756346F34E9
:100230006C34743461346734653420343D34203494
:100240002034203420342034203420341030A000D6
:10025000A301A4010310A70DA80D0310A10DA20D69
:10026000A30DA40D2508A3022608031C260FA40233
:10027000031841292508A30726080318260FA407F9
:10028000031C2714A00B2A2908008A0021088200D9
:100290004F29370885000800380886000800BC018F
:1002A0004A2A4E1C5B293F08A2005B08A1005C089B
:1002B000452183124E100A303E020319712903189A
:1002C00071293E08A2003030A3002208A3072308AA
:1002D000A2002208DD005D08A2005B08A1005C0806
:1002E00045293E08A2004130A3002208A3072308A5
:1002F000A2002208DD005D08A200F630A30022085B
:10030000A3072308A2002208DE005E08A2005B0803
:10031000A1005C084529D9005908BE005A1CA02933
:100320005708DB005808DC0051212E308312A20050
:100330005708A1005808452130308312BD0008003D
:100340003E08031DA9293D08A2005708A10058082E
:1003500045295708DB005808DC005129D30020301C
:10036000BD00053053020319B729031CD5291030ED
:10037000A5002730A6005108A1005208A20026219E
:1003800083122708D5002308D1002408D20054087E
:10039000043CD6100319D6144F08D7005008D800D3
:1003A0005A14D61C5A1055088B210430831253025C
:1003B0000319DC29031CFA29E830A5000330A60044
:1003C0005108A1005208A200262183122708D50057
:1003D0002308D1002408D2005408033CD611031985
:1003E000D6154F08D7005008D8005A14D61D5A10F9
:1003F00055088B210330831253020319012A031C71
:100400001E2A6430A500A6015108A1005208A200CE
:10041000262183122708D5002308D1002408D20002
:100420005408023CD6120319D6164F08D7005008BC
:10043000D8005A14D61E5A1055088B210230831248
:1004400053020319252A031C422A0A30A500A601DB
:100450005108A1005208A200262183122708D500C6
:100460002308D1002408D2005408013CD6130319F4
:10047000D6174F08D7005008D8005A14D61F5A1064
:1004800055088B2183125108BE004F08DB0050082D
:10049000DC0051298B01073083169F00B22A83129A
:1004A000B40001303402031D5A2A0330B6000000A4
:1004B0000000652A02303402031D632A0C30B600A6
:1004C0000130B400652A0530B600831203133608E4
:1004D00083120313B5008A110A126E2A83120313C2
:1004E000B50B6E2A8A110A1283120313B40B652A04
:1004F00008008312D3000430D600F830D7008312EE
:100500000313560883120313D400831203135708EE
:1005100083120313D5008A110A1283120313D50B19
:100520008D2A8A110A1283120313D40B852A8A1189
:100530000A1283120313D30B7F2A0800D101D201C0
:10054000A72A643079228312D10A0319D20A5208E9
:100550005002031DAD2A51084F0203190800031869
:10056000A12A08008312C001F12AD20007305205E7
:10057000D4000310540DD5000230A2000310D50D95
:10058000A20BBE2A400855049F0041084F22831247
:100590001F151F19C92A1E08D3005308080083120B
:1005A000CF004F08B5228312D10083161E08831294
:1005B000D0005008A2005108A300080080309F041A
:1005C00081308312C0000330C1000800043083165C
:1005D0009F00051485148515DE2A073083169F00B9
:1005E0000800E6228312C201C30183161F0883128A
:1005F000C400ED228312CE144E11CE11C5014B2C36
:100600008312B3003814331C38104C218312B814F1
:10061000B31CB8104C218312B815331DB8114C21EE
:1006200083123815B31D38114C2183123714492118
:100630008312371049298312B100B71049210310E2
:100640008312310CB2000330A2000310B20CA20BD3
:10065000252B3208002383123108002305304F2A4E
:100660000830D000CE1C3A2B0430A2005008A2075C
:100670002208D0004E1D422B0230A2005008A207D3
:100680002208D000CE19D00A50081B2B4F1C4A2B31
:100690004E15302B4E11302B8312AA00B71449216E
:1006A000031083122A0CAB000330A2000310AB0C22
:1006B000A20B562B2B08002383122A080023053097
:1006C0004F2A80304504B00030081B2B8312D10024
:1006D0005108C500612B2208A90029084C23831268
:1006E000C50A10304502031D782B4030C500612B30
:1006F00050304502031D612BC501612BCF0050080E
:10070000662383124F08A2006B2BD4005408031DEC
:10071000902B00308A005508B2208312D600962B09
:1007200000308A00550805208312D600D50A5608E5
:100730000130031D0030A2002208D7140319D7107E
:100740005715D71857112214571D221055080800A5
:10075000CF00D20150080319BC2B5208D5004F0816
:1007600085238312D200D314221CD3105608D10043
:10077000D318AD2BD003AA2B83125208D5004F08F3
:1007800085238312D2005315221C53115608D10021
:10079000531D08005108A2006B23BC2BCF0003108F
:1007A0004F0DD1000230A2000310D10DA20BD42BAB
:1007B0005108A2004030A3002208A3072308A2008A
:1007C0002208D20052081B2303308312A200031018
:1007D000D00DA20BE72BD301F52B01308A00500876
:1007E00003214C238312D00AD30A08305302031981
:1007F000612B031CED2B612B38104C218312B81098
:100800004C218312B8114C21831238114C218312D0
:10081000B71049218316061086108611061185101F
:10082000831237104921831605102830792283124C
:10083000B71049210330002305307922033000230B
:100840000A304F22033000230230002305304F22AC
:1008500028301B230F301B2301301B2306301B23A2
:100860006430792201308312D00056307E2302306A
:100870008312D00020307E2303308312D000313029
:100880007E2304308312D0002E307E230530831265
:10089000D00034307E2BFC238312D0010630CE23CF
:1008A00001308312D0000730CE2383124F1046232D
:1008B000003066238312D0010030A8234030662325
:1008C0008312CB016C2C01308A004B081521831256
:1008D000A2006B238312CB0A10304B020319722C37
:1008E000031C632C8312440883169F008514013077
:1008F0008312CF00D0019E220130CF228312220822
:10090000CC002308CD004C08C2004D08C300ED22E6
:10091000831685104A3066236B308312CF00033074
:10092000D0004208D1004308D2000230D400053084
:04093000AE21722C56
:02400E00323F3F
:00000001FF
