:020000040000FA
:1000000000000000042800000828200885000800DF
:10001000A1013828B301B4011728C730B20000008D
:100020000000B20B0F286400B30A0319B40A3408A5
:100030003102031D1D28330830020319080003187C
:100040000D280800AE01AF012D286430B000B101C9
:100050000A208312AE0A0319AF0A2F082D02031DCE
:1000600033282E082C02031908000318252808003D
:100070008316FF23900083120730831299008316A2
:100080009F018B018312A501572880308312A5049C
:100090000F3083169F0510309F0403308312A60093
:1000A00008000130A500013083169F00452851202B
:1000B0006228A01620088500831685120800831682
:1000C0000516080059205F20831605108312AB180F
:1000D0006B28AB146C28AB102014AB1C201005202F
:0C00E00005308312AC00AD012220662820
:02400E0084012B
:00000001FF
