:020000040000FA
:10000000000000000E280000FF00030E8301A10085
:100010000A08A2008A012008A300512812282408F7
:1000200085000800A5018316FF2390008312073086
:100030008312990083169F018B018312A901322834
:1000400080308312A9040F3083169F0510309F045F
:1000500003308312AA0008000130A9000130831682
:100060009F0020282C203D28A416240885008316F4
:100070008512080083160516080034203A208316DE
:10008000051081128111F83001058312AF0005308F
:100090002F04831681003D308312B000B101B210ED
:1000A0006C280B1D63280108A0003008A007200859
:1000B0008100B10A0A30310203196028031C62284A
:1000C000B214B1010B112308A00022088A00210EEE
:1000D0008300FF0E7F0E09008B168B170B11321950
:1000E00073283215742832112414321D24100F2065
:1000F0008312B3017F28B21C7B28B210B30A0530EB
:0C010000330203196F28031C7B286F28B2
:02400E0084012B
:00000001FF
