:020000040000FA
:100000000A128A11042800000B2820088500080025
:10001000210886000800A5018B01073083169F0088
:1000200036288312B0000430B300F830B4008312D5
:100030000313330883120313B1008312031334082C
:1000400083120313B2008A110A1283120313B20B34
:1000500025288A110A1283120313B10B1D288A1155
:100060000A1283120313B00B172808008312A90188
:10007000482880309F0481308312A9000330AA00F1
:100080000800043083169F0005148514851539284F
:1000900041205328221722088700831607130800DF
:1000A0008316871708004A205020831605108510F4
:1000B0000610861006118611831221150820323091
:1000C00011208312A0100520323011208312A115B7
:1000D00008203230112083122111082032301120E3
:1000E000831220140520323011208312A111082020
:1000F0003230112083122114082032301120831253
:1001000020100520323011208312A1140820323033
:100110001120831221100820323011208312211463
:100120000820323011208312A11008203230112013
:100130008312201405203230112083122110082050
:10014000323011208312A115082032301120831281
:100150002010052032301120831221150820323062
:1001600011208312A1110820323011208312A01413
:100170000520323011208312211108203230112045
:020180005C28F9
:02400E00323F3F
:00000001FF
