:020000040000FA
:10000000000000000E280000FF00030E8301A10085
:100010000A08A2008A012008A300512812282408F7
:1000200085000800A5018316FF2390008312073086
:100030008312990083169F018B018312A901322834
:1000400080308312A9040F3083169F0510309F045F
:1000500003308312AA0008000130A9000130831682
:100060009F0020282C203D28A416240885008316F4
:100070008512080083160516080034203A208316DE
:10008000051081128111F83001058312AF0005308F
:100090002F04831681003D308312B000B101B201FC
:1000A0007C280B1D73280108A0003008A007200839
:1000B0008100B10A0319B20A00303202031D62281E
:1000C0003230310203196628031C7228B3186A28DB
:1000D000B3146B28B3102414B31C24100F20831204
:1000E000B101B2010B112308A00022088A00210EE1
:1000F0008300FF0E7F0E09008B168B170B117F28D4
:02400E0084012B
:00000001FF
