:020000040000FA
:10000000000000000428000018280830A000A20109
:100010000310A40D0310A10DA20D2308A2020318C2
:1000200014282308A207031C2414A00B0828080086
:10003000A6018316FF2390008312073083129900D4
:1000400083169F018B014D28BA003A0883169B0046
:100050001C141A088312BB003B0808008312B80066
:10006000380824208312B90039080800B400350884
:1000700083169A008312340883169B001C158B1379
:100080008B1355309D00AA309D009C140000000089
:100090008B171C119C184A2808008312AA01622899
:1000A00080308312AA040F3083169F0510309F04FE
:1000B00003308312AB0008000130AA000130831620
:1000C0009F0050285C206D28A51625088500831602
:1000D000851208008316051608000A308312AC004A
:1000E0000B30AD000130AE000730AF000730AF007D
:1000F000DC28B9003E148B1F3E108B1F81288B1308
:100100007D283908BA000B30BB008F280130BC00B5
:100110002C08BD00BD0B8A28BC0B882808000310E2
:100120000318A516031CA5122508850086200314B4
:10013000BA0CBB0B902883123E1CA0288B1708001A
:100140008B13080008308312B6003A148B1F3A1044
:100150008B1FAC288B13A828051EAC28051AAE28C7
:100160002E08B7002F08B800B80BB428B70BB22878
:10017000051AAC282E08B7000000BE282D08B800CC
:10018000B80BC028B70BBE280508B900391A0314EC
:10019000391E0310B50CB60BBA283A1CD1288B17A0
:1001A000D2288B1335080800B80038087928A22017
:1001B0008312B4003408080064206A20FC2803304D
:1001C0002E208312B6003608B5000B30B400350877
:1001D000D4208312B701F52834082E208312B600EC
:1001E0003608D4208312B40AB70A37083502031937
:1001F00008000318EC280800DF20D7208312B20083
:100200003208B0003009B2003208D420AA3083127C
:10021000300203192F2903302E208312B200320836
:10022000B1003108A2000B30A3002208A307230865
:10023000A2002208B2003008B5003208362083122E
:10024000310AB2001430A3003208A1000520831245
:100250002208B1003108B50003303620FD28DF2028
:0A0260008312B50103303620FD289B
:02400E0084012B
:00000001FF
