:020000040000FA
:100000000000000004280000A3011E28B701B80169
:100010001328C730B60000000000B60B0B286400A0
:10002000B70A0319B80A38083502031D192837081A
:100030003402031908000318092808008316FF2357
:100040009000831207308312990083169F018B0161
:100050008312A7013D2880308312A7040F30831636
:100060009F0510309F0403308312A8000800013060
:10007000A700013083169F002B2837204828A2169E
:1000800022088500831685120800831605160800CD
:100090000A308312A9000B30AA000130AB000730F0
:1000A000AC000730AC00BF28B5003A148B1F3A10E3
:1000B0008B1F5C288B1358283508B6000B30B7000F
:1000C0006A280130B8002908B900B90B6528B80BB7
:1000D0006328080003100318A216031CA2122208AA
:1000E000850061200314B60CB70B6B2883123A1CF1
:1000F0007B288B1708008B130800B40034085428A1
:1001000008308312B500B901BA148B1FBA108B1FC7
:100110008B288B138728B90F8E28B428051E8B28AF
:10012000B90F9328B428051A90282B08B6002C087C
:10013000B700B70B9928B60B9728051A8B282B0800
:10014000B6000000A3282A08B700B70BA528B60BF5
:10015000A3280508B800381A0314381E0310B40C7D
:10016000B50B9F283A14B5283A10BA1CB9288B173A
:10017000BA288B1320143A1C2010340808003F20A2
:100180004520831605158312B014051DB0103011DB
:1001900083123019FB28030105190130A000030167
:1001A000B0180130A1002008210203192129AD0156
:1001B000B201B301EE28030105190130A0000301CB
:1001C000B0180130A100200821020319EB28AD0A64
:1001D000B014051DB010B20A0319B30A033033027C
:1001E000031DF428E83032020319F828031CDB2829
:1001F0002D087D202129030105190130A0000301EC
:10020000B0180130A100200821020319212914305F
:10021000B400B50106200301831205190130A000C6
:100220000301B0180130A1002008210203191B2985
:1002300033307D201D29FF307D208312B014051D31
:10024000B01080208312AE00B114201CB110B11C7C
:10025000C8282E087D20AA3083122E02031DC8282C
:10026000301934293015352930112E09AF002F08E7
:040270007D20C828FD
:02400E0084012B
:00000001FF
