:020000040000FA
:10000000000000000E280000FF00030E8301A10085
:100010000A08A2008A012008A300C6281228260880
:1000200085000800A7018316FF2390008312073084
:100030008312990083169F018B018312AB01322832
:1000400080308312AB040F3083169F0510309F045D
:1000500003308312AC0008000130AB00013083167E
:100060009F0020282C203D28A616260885008316F0
:10007000851208008316051608000A308312AD00A9
:100080000B30AE000130AF000730B0000730B000D9
:10009000B328B9003E148B1F3E108B1F51288B13C1
:1000A0004D283908BA000B30BB005F280130BC0076
:1000B0002D08BD00BD0B5A28BC0B582808000310A2
:1000C0000318A616031CA612260885005620031442
:1000D000BA0CBB0B602883123E1C70288B170800DB
:1000E0008B130800B800380849280830B900BD0152
:1000F000BE148B1FBE108B1F7F288B137B28BD0F58
:100100008228A828051E7F28BD0F8728A828051A41
:1001100084282F08BA003008BB00BB0B8D28BA0B0F
:100120008B28051A7F282F08BA00000097282E0870
:10013000BB00BB0B9928BA0B97280508BC003C1ADA
:1001400003143C1E0310B80CB90B93283E14A928C5
:100150003E10BE1CAD288B17AE288B1320143E1CFE
:1001600020103808080034203A2083168510051125
:1001700081128111F83001058312B1003108831614
:1001800081008312B201B301B714F8280B1DEE28C9
:100190000108A0003208A00720088100B503350837
:1001A000031DE0283308B4002615B71C26110F20C4
:1001B0008312A614051DA6100F2080308312B500EF
:1001C000350834020319ED28031CED282415051900
:1001D0002411A614241DA6100F200B11831223082E
:1001E000A00022088A00210E8300FF0E7F0E090066
:1001F0008B168B170B1175208312B6003715201C38
:100200003711371DFB28360872207F3083123602E3
:10021000B71003190D290318B7147F303605B30042
:02022000FB28B9
:02400E0084012B
:00000001FF
