:020000040000FA
:100000000A128A1104280000082820088500080028
:10001000A5018B01073083169F004628B4000430E9
:10002000B700F830B80083120313370883120313A4
:10003000B50083120313380883120313B6008A1124
:100040000A1283120313B60B21288A110A12831293
:100050000313B50B19288A110A1283120313B40B68
:1000600013280800B201B3013B2864300E2083122C
:10007000B20A0319B30A33083102031D41283208BA
:100080003002031908000318352808008312A9015B
:10009000582880309F0481308312A9000330AA00C1
:1000A0000800043083169F0005148514851549281F
:1000B000512063282217220887008316071308009F
:1000C0008316871708005A206020831605108312B4
:1000D0002014052005308312B000B10132208312B4
:1000E0002010052005308312B000B10132206728AE
:02400E00323F3F
:00000001FF
