:020000040000FA
:100000000A128A1104280000A6018B01073083160A
:100010009F008312AA011B2880309F048130831225
:10002000AA000330AB000800043083169F000514BB
:10003000851485150C2814202628231723088700EB
:100040008316071308008316871708001D20232036
:100050004C28403083169900181508002920831673
:100060008C120C1298169030831298000800B4007D
:100070000C1E382834089900080083128C1E43286F
:100080001A08B400452820104A28981C492818123C
:1000900018162014340808002E203D208312B000CA
:1000A000B314201CB310B31C4D283009B200320821
:0400B00037204D2880
:02400E00323F3F
:00000001FF
