:020000040000FA
:100000000A128A1104280000A6018B01073083160A
:100010009F008312AA011B2880309F048130831225
:10002000AA000330AB000800043083169F000514BB
:10003000851485150C2814202628231723088700EB
:1000400083160713080083168717080050308312A1
:10005000AC005030AD000130AE002A30AF002A3085
:10006000AF00D228B5003A148B1F3A108B1F3A28E4
:100070008B1336283508B6000B30B70048280130FE
:10008000B8002C08B900B90B4328B80B4128080068
:10009000031003182317031C2313230887003F2092
:1000A0000314B60CB70B492883123A1C59288B1736
:1000B00008008B1308000830B6003A148B1F3A1062
:1000C0008B1F64288B136028871F6428871B662872
:1000D0002E08B7002F08B800B80B6C28B70B6A2899
:1000E000871B64282E08B700000076282D08B8006A
:1000F000B80B7828B70B76280708B900B91B03148A
:10010000B91F0310B50CB60B72283A1C89288B173F
:100110008A288B1335080800B400340832285B2085
:100120008312B400340808000830B500B901BA14CD
:100130008B1FBA108B1F9E288B139A28B90FA128EA
:10014000C728871F9E28B90FA628C728871BA32862
:100150002E08B6002F08B700B70BAC28B60BAA289C
:10016000871B9E282E08B6000000B6282D08B70071
:10017000B70BB828B60BB6280708B800B81B03148D
:10018000B81F0310B40CB50BB2283A14C8283A10A3
:10019000BA1CCC288B17CD288B1320143A1C2010A6
:1001A000340808001D2023208312B3148312B31CCB
:1001B000EF288F208312B1003108B0003009B10060
:1001C00031088C20AA3083123002031DD628B318C0
:1001D000EB28B314EC28B310AA308C20D628942036
:1001E0008312B0003316201C3312331ED628300978
:1001F000B20032083220AA3083123002031DD62802
:10020000B3180429B3140529B31055308C20D6280F
:02400E00323F3F
:00000001FF
