:020000040000FA
:020000000428D2
:08000800FF30A100FF30A2004F
:100010008A110A124520A3118A110A125320A41131
:100020008A110A1287191528A4158A110A124D205F
:1000300005308A110A1222208A110A120F288A1109
:100040000A121F28A5002508A6006430A7000A3060
:100050008A110A122B28A800FF30A9002708AB003C
:100060002608AA0077308A110A12290703183528B2
:100070008A110A12AA0B32288A110A12AB0B3028F5
:100080008A110A12A80B2E2808008A110A12592078
:1000900007309F008A110A125A288A110A12502822
:1000A0002408870008008A110A12562823086700CE
:0600B00008000800080032
:02400E00723FFF
:00000001FF
